:020000040800F2
:10000000F81E0020B1350008B9350008BB350008DE
:10001000BD350008BF350008C135000800000000EC
:10002000000000000000000000000000C3350008D0
:10003000C535000800000000C7350008C9350008B4
:10004000CB350008CB350008CB350008CB35000890
:10005000CB350008CB350008CB350008CB35000880
:10006000CB350008CB350008CB350008CB35000870
:10007000CB350008CB350008CB350008CB35000860
:10008000CB350008CB350008CB350008CB35000850
:10009000CB350008CB350008CB350008CB35000840
:1000A000CB350008CB350008CB350008CB35000830
:1000B000CB3500082B280008CB350008CB350008CD
:1000C000CB350008CB350008CB350008CB35000810
:1000D000CB350008752C0008872D0008A12E0008DC
:1000E000CB350008CB350008CB35000800F002F80E
:1000F00000F05AF80AA090E8000C82448344AAF168
:100100000107DA4501D100F04FF8AFF2090EBAE865
:100110000F0013F0010F18BFFB1A43F0010318473B
:100120003C6700005C6700000A444FF0000C10F8C8
:10013000013B13F0070408BF10F8014B1D1108BF65
:1001400010F8015B641E05D010F8016B641E01F805
:10015000016BF9D113F0080F1EBF10F8014BAD1C55
:100160000C1B09D16D1E58BF01F801CBFAD505E073
:1001700014F8016B01F8016B6D1EF9D59142D6D3CD
:10018000704700000023002400250026103A28BFF5
:1001900078C1FBD8520728BF30C148BF0B607047F9
:1001A0001FB51FBD10B510BD05F026FE1146FFF7A7
:1001B000F7FF00F041FC05F044FE03B4FFF7F2FF47
:1001C00003BC05F049FE0000F0B50D462A46530871
:1001D00000BF1BB15B1E30F8136007E0521E02B96E
:1001E000F0BD30F81260078820F812701C46012715
:1001F00007EB430117E04F1C974206D230F8177007
:1002000030F811C0674500DD491C30F81170B74265
:1002100008DD30F8117020F814700C46012707EB48
:10022000440100E001E09142E5D300BF20F81460F2
:10023000CFE72DE9F04FE9B04FF000096CE0002462
:1002400009E0F94800EBC40030F8190005A921F8CD
:100250001400601CC4B2C82CF3DBC82105A8FFF74A
:10026000B3FF322409E005A830F81400EF4909680B
:100270000844EE490860601CC4B2962CF3DBB9F167
:10028000030F23D1E948006806F0B2F8E84901906D
:1002900005F0B4FF4FF08B41029005F0AFFF0390E3
:1002A00005F012FF07464FF06632E24B05F00EFEF6
:1002B00005460022E04B05F009FE824605F0D4FD1C
:1002C0000490DE49049841F829001EE0D7480068F0
:1002D00006F08EF8D649039005F090FF4FF08B4161
:1002E000049005F08BFF834605F0EEFE07464FF0C5
:1002F0006632D04B05F0EAFD054605F0B5FD8246B5
:1003000000F0F6FECD4941F829000020C7490860F9
:1003100009F1010000F0FF09B9F1040F8FDB69B0AA
:10032000BDE8F08F08B50121092003F0EBFC0121A5
:10033000C34803F0FCFAE920ADF8000010208DF866
:10034000030003208DF802006946BE4803F01EFA40
:100350001020ADF800008DF8030003208DF8020096
:100360006946B84803F012FAF121B64803F0BDFA25
:100370000121042003F0C6FC4FF41C60ADF800001E
:1003800010208DF8030003208DF802006946AE4866
:1003900003F0FCF94FF41C61AB4803F0A6FA4FF4EC
:1003A0008071A94803F09FFA08BD08B50121092012
:1003B00003F0A8FC0121A24803F0B9FA0620ADF829
:1003C000000004208DF8030003208DF80200694628
:1003D0009C4803F0DBF908BD30B5A9B000245522D4
:1003E0002146641C01A842542146641C4254204406
:1003F00096490A6802604968416008349448027866
:100400002146641C01A84254002516E09148425D33
:100410002046611CCCB201A90A548F48425D204697
:10042000611CCCB201A90A548C48425D2046611C73
:10043000CCB201A90A54681CC5B2042DE6DB884879
:1004400002782046611CCCB201A90A548548027882
:100450002046611CCCB201A90A54002508E082485C
:10046000425D2046611CCCB201A90A54681CC5B289
:10047000042DF4DB502201A97C4802F030FB29B0A6
:1004800030BD30B5A9B00024502201A9774802F050
:1004900015FB01A8005D552858D055222046611C47
:1004A000CCB201A90A542046611CCCB201A90A545D
:1004B00001A8204465490A6802604968416004F166
:1004C0000800C4B2624802782046611CCCB201A97F
:1004D0000A54002515E05F48425D2046611CCCB2FD
:1004E00001A90A5419222046611CCCB201A90A5460
:1004F0005A48425D2046611CCCB201A90A54681CCE
:10050000C5B2042DE7DB01222046611CCCB201A953
:100510000A5400222046611CCCB201A90A540025CD
:1005200008E05148425D2046611CCCB201A90A5442
:10053000681CC5B2042DF4DB502201A94B4802F01F
:10054000CEFA502201A9494802F0B8FA022401A8C3
:1005500001193E480A680260496841600834214632
:10056000641C01A8405C3A490870002516E020464A
:10057000611CCCB201A9085C364948552046611C73
:10058000CCB201A9085C344948552046611CCCB264
:1005900001A9085C31494855681CC5B2042DE6DB49
:1005A0002046611CCCB201A9085C2D490870204688
:1005B000611CCCB201A9085C2A490870002508E03A
:1005C0002046611CCCB201A9085C27494855681C2B
:1005D000C5B2042DF4DB29B030BD10B50446012CA2
:1005E00006D0022C0DD0032C14D0042C4FD145E0A2
:1005F00001F092FD611EC8B21D49097801F0A4FF07
:1006000045E001F08FFD611EC8B21A49097801F07A
:100610009BFF3CE001F08CFD611EC8B216490978D1
:1006200001F092FF33E00000FC01002054000020A4
:100630000000C84266660A4000002440EC01002029
:1006400000023000000C0140000801403100002091
:1006500012000020150000201D00002019000020BD
:1006600001000020530000202400002000EC0008BE
:100670000E0000200F0000201000002001F05EFDA1
:10068000611EC8B2FE49097801F05EFF00BF00BFDD
:1006900010BD10B50446092C6ED2DFE804F06D05DC
:1006A000121F2C394653600001F04EFDF5480178C9
:1006B000002001F057FFF4480178012001F052FFBB
:1006C0005AE001F059FDEF480178002001F04AFF9F
:1006D000ED480178012001F045FF4DE001F03AFDC1
:1006E000E8484178022001F03DFFE74841780320C7
:1006F00001F038FF40E001F045FDE248417802207A
:1007000001F030FFE0484178032001F02BFF33E097
:1007100001F026FDDB488178042001F023FFDA4850
:100720008178052001F01EFF26E001F031FDD5485B
:100730008178042001F016FFD3488178052001F06C
:1007400011FF19E001F012FDCE48C178062001F03A
:1007500009FFCD48C178072001F004FF0CE001F04B
:100760001DFDC848C178062001F0FCFEC648C178CE
:10077000072001F0F7FE00BF00BF10BD10B5C34851
:1007800001780078401CC14A10700A2936DD00202B
:1007900011460870BE48047827E0BE480078204122
:1007A00000F00100F8B134B1012C0AD0022C0ED0B7
:1007B000032C18D111E001F03CFF0120B44908706E
:1007C00010BD01F03CFF0220B1490870F8E701F0CC
:1007D0003CFF0320AE490870F2E701F04EFF002015
:1007E000AB490870ECE7601CC4B2042CD5DBA84808
:1007F0000078042802D10020A549087000BFDFE777
:100800001CB502460B460020019000901068019034
:1008100018680090002109E001A8405C1DF8014023
:10082000A04201D000201CBD481CC1B20429F3DB4A
:100830000120F8E72DE9F04704460F464FF0000885
:1008400095A1204605F003FA10B1012094490870E3
:1008500094A1204605F0FBF910B1002090490870E2
:100860004FF00008012604E0A05D80EA0808701C33
:1008700086B2B81EB042F7DC205C404579D100203A
:100880008B4908806078722816D12546A8780128FF
:1008900011D0A87802280ED101F0BCFB8548017860
:1008A0000078401C834A1070022904DD00201146A4
:1008B0000870814908705CE06078712808D1204692
:1008C0007E49D0F802200A6001217B4A117050E075
:1008D000607873284DD12546A91C7848FFF790FF12
:1008E000002845D095F80790B9F1010F09D0B9F16A
:1008F000020F1FD0B9F1030F28D0B9F1040F31D185
:1009000028E0607A00F00F00217A01F00F0101EB7E
:10091000810100EB41006A490870084600783C28D4
:1009200001DD3C200870FFF757FD6548007801F0B5
:1009300012FF18E0287A63490870084600780428F6
:1009400001DD01200870FFF747FD0CE0287A5E49C1
:10095000087008E0287A5D490870FFF73DFD00F057
:10096000BCFD00E000BF00BF012001F033FB00BF71
:1009700000BFBDE8F087F0B5034600200024AA2799
:100980000646401C8F550646401C8B5501270646DF
:10099000401C8F55012204E08D5C2544ECB2551CAF
:1009A000EAB28242F8DB0546461CF0B24C555527A8
:1009B0000546461CF0B24F55F0BD2DE9F04186B01A
:1009C00004460D462078AA2833D1681E205C55289D
:1009D0002FD10027012603E0A05D3844C7B2761C62
:1009E000A81EB042F8D8205CB84221D1142101A839
:1009F00005F0A6F94FF00008607801A9FFF7BBFFEA
:100A000080466078112811D1314800210160416091
:100A10000172D4F802100160D4F806104160FFF7AB
:100A2000DBFC414601A802F062FA00BF00BF00BF34
:100A300000BF06B0BDE8F08100F03BFA482000F0AE
:100A400073F902F0C9F8AFF213202249C1F8040487
:100A500002F04AF920491F48C0F8101802F0CFF9F7
:100A6000AFF2A9011B48C0F81C1C4FF4967000F0AF
:100A700075F9FFF706FD00F022FBFFF7DAFB2DE02A
:100A8000110000201500002019000020580000204F
:100A9000590000204B0000205354413A4F4B0000B6
:100AA000510000205354413A444F574E000000007B
:100AB00048000020400000203E0000203A000020B6
:100AC0001200002001000020290000205300002017
:100AD000310000205C0C0020732F0008FFF722FC7F
:100AE000FFF763FC1E207249087000F09CFC00F0C8
:100AF0009AFC01F0F3FA6F49087801F002FE0A202F
:100B000000F02CF96C49087801F007FE0A2000F08B
:100B100025F96A49087801F00CFE0A2000F01EF958
:100B20006748007801F017FE0A2000F017F941F23B
:100B3000883000F013F900206249087001206249F2
:100B4000087001F0E3FA00F0C8FC00F0B6FC0220E7
:100B500000F040FB5D49087001F095FD41F61F4132
:100B6000312001F035FE0120594908609EE0FFF771
:100B700060FB5849086805F003FC5749087055495F
:100B8000486805F0FDFB55490870C82000F0E6F8FC
:100B900053480078012804D101F0A6FA00205049FA
:100BA0000870504801780078401C4E4A1070142993
:100BB00004D01E2907D0282916D111E00C214AA003
:100BC00002F07DF810E04C480078012807D14B482E
:100BD000008820B901204949088001F01BFA03E090
:100BE00000204049087000BF00BF45480078012838
:100BF0000AD14148007838B94048008820B901201E
:100C00003E49088001F0ACF93D480078012802D146
:100C100001F0C6FC02E0002001F0C2FC3948007877
:100C200020B101F030FD00203649087000F09EFD33
:100C30003548007801F04DFD3448007801F055FD4D
:100C40002548007801F068FC2448007801F070FC29
:100C50002F480078012804D100202D49087001F0A8
:100C600018FD2A480078012804D12A48007801F0AC
:100C700081FB02E0042001F07DFB27480078012879
:100C800003D12648007801F01AFB2548007801F0CE
:100C9000BBFA01F0AAFC01F090FC01F09AFC01F013
:100CA00089FA2048007808B1FFF768FD5FE77047D0
:100CB00033010020150000201D0000201900002035
:100CC0001200002039010020280000202B01002004
:100CD00060010020EC0100200C0000200D0000202D
:100CE000640100205200002041542B5354415354BE
:100CF00041545553000000003E00002048000020F1
:100D00005100002074010020290000200000002074
:100D10007501002001000020230000200B000020AE
:100D2000360100204B00002010B504466FF004008F
:100D300002F0ADFCE11704EB5171C1F3C701234A86
:100D400011701046007800EB4001C1EBC0104FF667
:100D5000FF7101EAC0001E49088010BD01461C4A0F
:100D600012884A434FF0E0235A6100229A6101221F
:100D70001A6100BF4FF0E022106900F001021AB1C1
:100D800000F48032002AF5D000224FF0E0231A61EF
:100D90009A61704701460D4A12784A434FF0E023AA
:100DA0005A6100229A6101221A6100BF4FF0E022CD
:100DB000106900F001021AB100F48032002AF5D067
:100DC00000224FF0E0231A619A6170475A00002018
:100DD0005C0000200CB50020019000906C48006879
:100DE00040F480306A49086000BF6948006800F438
:100DF000003000900198401C0190009818B90198AB
:100E0000B0F5A06FF1D16248006800F4003010B175
:100E10000120009001E0002000900098012843D1BB
:100E20005C48006840F010005A49086008460068B5
:100E300020F0030008600846006840F002000860E7
:100E40005348406852494860084640684860084630
:100E5000406840F4806048600846406820F47C1098
:100E600048600846406840F4E8104860084600685A
:100E700040F08070086000BF4548006800F00070D6
:100E80000028F9D04248406820F0030040494860FB
:100E90000846406840F00200486000BF3C48406897
:100EA00000F00C000828F9D10CBD10B5FFF792FF37
:100EB00010BD10B53648006840F0010034490860A4
:100EC000084640683449084031494860084600688F
:100ED000324908402E4908600846006820F4802006
:100EE00008600846406820F4FE0048604FF41F0088
:100EF0008860FFF7DAFF4FF000602949086010BDF5
:100F000010B5002100200022214B5B6803F00C018A
:100F100021B1042906D0082928D107E0214B224C11
:100F2000236027E01F4B204C236023E0184B5B68B5
:100F300003F47010164B5B6803F48032022303EB5A
:100F4000904022B9194B4343174C23600DE0104BDE
:100F50005B6803F4003323B1144B4343124C23600A
:100F600003E0104B4343104C236003E00D4B0E4C49
:100F7000236000BF00BF064B5B68C3F303130C4C38
:100F8000E15C094B1B68CB40074C236010BD00009F
:100F900000100240002002400000FFF8FFFFF6FEB4
:100FA00008ED00E000127A006000002000093D001A
:100FB0006400002008B501214FF4017002F0A2FE88
:100FC0003020ADF8000000208DF803006946444849
:100FD00002F0DCFB08BD00B585B0002000900120C8
:100FE0008DF804008DF805004FF460200290002079
:100FF000039004208DF8100069463A4803F011F977
:101000004FF4404002F0E2FD07230122042135485D
:1010100003F09FF9072302220521324803F099F9D2
:101020000723032206212F4803F093F90723042204
:1010300019462C4803F08DF901212A4803F028F9BC
:101040000121284803F019F9264803F038F900BFB8
:10105000244803F039F90028FAD1224803F03EF978
:1010600000BF204803F03FF90028FAD105B000BDC9
:1010700000B58BB00121084602F037FE1A4803F094
:10108000D1FA18484C300090184801900020029086
:101090004FF4487003900020049080200590400099
:1010A0000690800007902020089000020990002000
:1010B0000A9069460C4803F057FB0BB000BD10B511
:1010C000FFF778FFFFF787FFFFF7D2FF0121054801
:1010D00003F013F90121044803F071FB10BD000077
:1010E000000801400024014008000240FC010020EB
:1010F0002DE9F14F84B032480168049805F08CFA6C
:1011000003D2304805B0BDE8F08F2D48D0F89810D4
:10111000049805F081F901D22B48F3E70025262633
:10112000132425E0264850F82410049805F074FA9A
:1011300006D22646701900EBD071C1F3470417E0C0
:101140001F4850F82410049805F066F906D2254689
:10115000701900EBD071C1F3470409E004EB84007F
:10116000A0F12809484605F02BF907463846C9E79B
:10117000701B0128D6D104EB8400A0F12809104887
:1011800050F8258050F826A0484605F019F9514638
:101190000390404605F07CFA41460190049805F022
:1011A0006CFA0A49009005F06BF98346019905F045
:1011B00025F80290039904F0B3FF07463846A1E7EB
:1011C0007400002000007F4300007E430000A04028
:1011D0007047704702460020002107E0FE4B5B5C31
:1011E000934201D1431CD8B24B1CD9B20429F5DB80
:1011F000704710B50446012C04D14021F74802F095
:1012000072FB27E0022C04D18021F44802F06BFB32
:1012100020E0032C04D10121F14802F064FB19E025
:10122000042C04D16102ED4802F05DFB12E0052CB4
:1012300010D14021E94802F056FB8021E74802F036
:1012400052FB0121E64802F04EFB4FF40061E348F7
:1012500002F049FB10BD10B50446012C04D1402119
:10126000DE4802F042FB13E0022C04D18021DB486F
:1012700002F03BFB0CE0032C04D10121D84802F022
:1012800034FB05E0042C03D16102D44802F02DFBAD
:1012900010BD10B50446012C04D11021D04802F035
:1012A00022FB13E0022C04D12021CD4802F01BFBCD
:1012B0000CE0032C04D14021C94802F014FB05E0E6
:1012C000042C03D18021C64802F00DFB10BD10B5DF
:1012D0000446012C04D11021C14802F006FB13E0A2
:1012E000022C04D12021BE4802F0FFFA0CE0032CAE
:1012F00004D14021BA4802F0F8FA05E0042C03D1E9
:101300008021B74802F0F1FA10BD10B50821B448A9
:1013100002F0E9FA0120B34908700846007801F0AC
:101320004BF90020B0490870B049086010BD10B5F5
:101330000821AB4802F0D9FA0020AA4908700846F3
:10134000007801F039F910BD10B5044684B91021B8
:10135000A34802F0C8FA2021A14802F0C6FA4021B1
:101360009F4802F0C2FA80219D4802F0BEFA48E090
:10137000012C10D110219A4802F0B5FA202198488A
:1013800002F0B1FA4021964802F0AFFA8021944869
:1013900002F0ABFA35E0022C10D11021904802F097
:1013A000A2FA20218E4802F09EFA40218C4802F0D9
:1013B0009AFA80218A4802F098FA22E0032C10D190
:1013C0001021874802F08FFA2021854802F08BFA1D
:1013D0004021834802F087FA8021814802F083FA95
:1013E0000FE010217E4802F080FA20217C4802F0B4
:1013F0007CFA40217A4802F078FA8021784802F09D
:1014000074FA10BD10B50120794908707948007848
:10141000FFF79AFF10BD10B5002075490870042031
:10142000FFF792FF10BD10B501F0A1F910BD704794
:1014300070477047704800687049884208D9704802
:10144000007840F002006E49087001206D49086084
:1014500070476D4800786D490978401A1E2805DDEF
:101460006748007840F00400654908707047664896
:101470000078552809DD64480078FE2805DA6048C0
:10148000007840F008005E49087070475F480078B7
:10149000FF280BD05D480078FE2807D05A48007816
:1014A000FF2803D058480078FE2805D1544800781A
:1014B00040F001005249087070470021002009E007
:1014C000454A125C022A03D1514A50544A1CD1B2F7
:1014D000421CD0B20428F3DB704710B500244D48FD
:1014E0000078012876D13C48007818B13A48007855
:1014F000022821D14021394802F0F5F93648007818
:10150000022808D13CB94448007840F0080042491C
:10151000087001241AE03048007830B93E4800785D
:1015200040F008003C49087010E03B48007800F0AB
:10153000F7003949087009E04021284802F0D5F940
:101540003548007800F0F7003349087022484078A9
:1015500018B121484078022821D180211F4802F08B
:10156000C2F91D484078022808D13CB92A480078C1
:1015700040F004002849087001241AE01648407819
:1015800030B92548007840F004002349087010E085
:101590002148007800F0FB001F49087009E0802115
:1015A0000E4802F0A2F91C48007800F0FB001A492E
:1015B00008700948807818B107488078022846D119
:1015C0000121074802F08FF90348807802282DD1C5
:1015D0000CB923E07BE029E0240000200008014052
:1015E000000C0140080000203101002020010020F3
:1015F00000000020010000201801002000D6830018
:101600004B0000201C0100200D0000200C000020D9
:101610002C0100205300002036010020FE480078F5
:1016200040F00200FC49087001241AE0FB48807871
:1016300030B9F948007840F00200F749087010E02E
:10164000F548007800F0FD00F349087009E0012139
:10165000F34802F04AF9F048007800F0FD00EE4946
:101660000870EE48C07818B1EC48C078022822D142
:101670004FF40061EB4802F036F9E848C0780228E0
:1016800008D13CB9E448007840F00100E249087014
:10169000012430E0E148C07830B9DF48007840F0FC
:1016A0000100DD49087026E0DB48007800F0FE000C
:1016B000D94908701FE04FF40061DA4802F015F9CB
:1016C000D548007800F0FE00D349087013E04021AF
:1016D000D44802F008F98021D24802F004F901212F
:1016E000CF4802F000F94FF40061CE4802F0FBF859
:1016F0000F20C949087010BD10B50446CA480078CB
:10170000401CC949087004F0080020B14021C548B8
:1017100002F0E9F803E04021C24802F0E6F804F0E4
:10172000040020B18021BF4802F0DDF803E08021F1
:10173000BC4802F0DAF804F0020020B10121B848F8
:1017400002F0D1F803E00121B54802F0CEF804F030
:10175000010028B14FF40061B24802F0C4F804E07F
:101760004FF40061AF4802F0C0F810BD70B5AF4D46
:10177000FFF77DFEFFF78AFEFFF76BFEFFF75AFECD
:10178000AB480078002878D1AA480078012828D0F2
:10179000A9480078052803DDA8480078012821D150
:1017A000A7480078F0B9FFF7B0FD0520FFF721FD4D
:1017B000A44801880088401CA24A108032290DDD0F
:1017C00001209F490870A04908700320FFF7BCFD65
:1017D00033209C49088001209C49086001209749DA
:1017E0000870BFE096480078012811D1974800683A
:1017F00070B9002092490870FFF799FDFFF70BFEC2
:101800000020914908708D4908708E490880A9E030
:101810008B4800780028E4D18D4908708D48007805
:10182000012877D18C48007800F0080018B1012019
:10183000FFF72FFD07E08848007800F0080010B996
:101840000120FFF744FD8448007800F0040018B13F
:101850000220FFF71EFD07E07F48007800F004003B
:1018600010B90220FFF733FD7B48007800F002003A
:1018700020B10320FFF70DFD08E01EE37648007855
:1018800000F0020010B90320FFF721FD7248007834
:1018900000F0010018B10420FFF7FBFC07E06E48E0
:1018A000007800F0010010B90420FFF710FD6B482C
:1018B000007810B9FFF73BFD01E0FFF726FD68480F
:1018C000007800F0080018B10120FFF792FC07E053
:1018D0006348007800F0080010B90120FFF7BBFC56
:1018E0005F48007800F0040018B10220FFF781FC87
:1018F00007E05B48007800F0040010B90220FFF711
:10190000AAFC5748007800F0020020B10320FFF73E
:1019100070FC08E019E05248007800F0020010B9AD
:101920000320FFF798FC4E48007800F0010018B142
:101930000420FFF75EFC15E04948007800F0010044
:1019400080B90420FFF787FC0CE0464800780128A6
:1019500008D000203B49088033490870FFF75BFD41
:10196000FFF7E5FC33480078012853D100203E49B9
:101970000870002420E03D48005D3D49095D884233
:1019800018D001203B4908703848005D3A49097871
:1019900088420FDC3648005D37490978884209DB08
:1019A0003648005D364908702F480078401C2E49A3
:1019B000087003E0601CC4B2042CDCDB00BF3148BB
:1019C0000078002827D12B48007801287BD12648B1
:1019D0000078002878DD2C480078C8B92B480078BA
:1019E000B8B91548007826490978884253DAFFF7D4
:1019F0008CFC144801880088401C124A108064291D
:101A00004CDDFFF7FFFC65200E49088001203FE018
:101A100072E043E0D7E1F5E1360100202400002028
:101A2000000C014000080140370100202C0100207B
:101A300082010020290000200C0000201501002058
:101A40004D00002010010020000000202401002093
:101A500014010020230000200B0000200A000020B9
:101A600032010020280100204E0000201500002037
:101A700019000020350100204F0000201D0000202B
:101A8000130000204B0000205300002034010020F0
:101A9000F649087002E00120F4490870F448007823
:101AA000F4490978884210DDFFF7B5FC0020F249BF
:101AB0000880F248007810B90120F149086001203F
:101AC000EE490870BCE1B8E0A9E0EA480078401FA0
:101AD000E74909788842F5DDFFF717FCE6480188F9
:101AE0000088401CE44A10806429EBDDFFF78AFC83
:101AF0006520E1490880A3E1E2480078FFF7FCFD9A
:101B0000E14800786428DDDD6520DF490870D748AA
:101B10000078D8B9D6480078D6490978884212DAD0
:101B2000FFF7F3FBD44801880088401CD24A10809C
:101B300050290BDDFFF766FC5120CF4908800120BA
:101B4000CA49087002E00120C8490870C8480078F6
:101B5000C8490978884248DDCC480078012844D13A
:101B6000FFF759FC0020C4490880C448007810B928
:101B70000120C34908600120C04908700020C24903
:101B80000870C348007801289CD0C2480078295CBE
:101B900008200841BB4909788143BA480170BD4813
:101BA0000078401CBB49087008460078B84909789D
:101BB000884202D10020B7490870B6480078B4497D
:101BC000097888420DDAB3480078295C082008417A
:101BD000AC4909780843AB4908700020AB4908704C
:101BE0002EE10020AB4908702AE1A2480078401F8E
:101BF0009F4909788842F3DDFFF787FB0120A3495D
:101C000008709D4801880088401C9B4A1080642908
:101C1000E6DDFFF7F7FB65209749088010E100201B
:101C20009249087001209949087000209A4908706B
:101C3000FFF7F1FBFFF77BFB02E1984800788D4945
:101C400008709748007890BB88480078D0B98848D9
:101C500000780978884212DAFFF757FB8648018836
:101C60000088401C844A108050290BDDFFF7CAFB16
:101C700051208149088001207C49087002E0012040
:101C80007A4908707A4800787A49097888420FDDE5
:101C9000FFF7C1FB7948007810B901207849086046
:101CA000012076490870002073490880C8E016E0DA
:101CB00070480078401F6E490978884290DDFFF730
:101CC00024FB6D4801880088401C6B4A1080642901
:101CD00086DDFFF797FB652067490880B0E069481B
:101CE0000078FFF709FD6848007864286BDD6520FF
:101CF000654908705D480078D8B95D4800785D494D
:101D00000978884212DAFFF700FB5B4801880088F7
:101D1000401C594A108050290BDDFFF773FB5120FE
:101D20005549088001205149087002E001204F49BF
:101D300008704F4800784F490978884248DD534879
:101D40000078012844D1FFF766FB00204A4908804B
:101D50004A48007810B901204949086001204749E4
:101D6000087000204849087049480078012867D069
:101D700048480078295C0820084142490978814395
:101D80004048017043480078401C424908700846AA
:101D900000783F490978884202D100203D49087007
:101DA0003C4800783A49097888420DDA3948007889
:101DB000295C0820084133490978084331490870F3
:101DC0000020324908703BE000203249087037E0BB
:101DD00028480078401F26490978884230DDFFF7FF
:101DE00094FA012029490870234801880088401C82
:101DF000214A1080642923DDFFF704FB65201E497A
:101E000008801DE0FFF70FFB2648007800F008006F
:101E100048B11A48007810B901201949086001201A
:101E2000164908700CE01F48007800F0020018B155
:101E300001201D49087003E0FFF779FAFFF7EBFA7C
:101E40001948007801287BD10020184908601848FB
:101E5000006888BBFFF76BFAFFF7DDFA0020124934
:101E60000870054908801349087069E034010020B2
:101E70000C00002013000020100100203101002080
:101E80002001002036010020370100203001002011
:101E90002B01002039010020350100201200002014
:101EA000530000204B0000202801002018010020D2
:101EB0001C010020140100202CE022480078012899
:101EC0003ED121480078052803DD2048007801280C
:101ED00021D11F480078F0B9FFF717FA0520FFF766
:101EE00088F91C4801880088401C1A4A1080322951
:101EF0000DDD012016490870174908700320FFF70F
:101F000023FA332013490880012014490860012076
:101F10000E49087014E00E480078012810D10F48CF
:101F2000006868B900200A490870FFF700FAFFF757
:101F300072FA0020084908700449087005490880B1
:101F400070BD0000820100200C000020150100205F
:101F50004D0000201001002000000020240100207E
:101F600010B57E204E490870012048700006C1F867
:101F700002004000C1F8060000240FE0494810F8B4
:101F80001410012000EB4400464A105C61F31F105E
:101F9000C1B243480A300155601CC4B2042CEDDBC9
:101FA00007203F4988730020C873012408E03C489B
:101FB000C07B3B49095D48403949C873601CC4B2C5
:101FC0000F2CF4D37E20364908741121344800F0D8
:101FD00076FE10BD70B505467E203349087000209E
:101FE000C870012408E03048C0782F49095D484096
:101FF0002D49C870601CC4B2032CF4D32A488570E4
:102000000320294948707E2008710521264800F0E8
:1020100056FE70BD10B57E202449087088730220DA
:102020004870084622490968C0F8021006201F4976
:10203000887120480078C8711F48007808721F48CE
:10204000007848721E48007888721E480078C8726E
:102050001D480078087300204873012408E01348E5
:10206000407B1249095D484010494873601CC4B266
:102070000D2CF4D30F210D4800F021FE10BD10B53A
:102080000020124908700A4800210160062110A0B2
:1020900000F015FE00201049A1F8000410BD00005A
:1020A0004B080020310000203C0100203C080020AB
:1020B0003A000020120000200C0000200100002047
:1020C000290000204B000020360100203B010020A9
:1020D00041542B52535400005C0C002010B50621D3
:1020E000F94800F077FE10BD10B50621F74800F062
:1020F00071FE10BD10B50621F54800F06BFE10BD55
:1021000010B50621F34800F065FE10BD10B507219B
:10211000F14800F05FFE10BD10B50721EF4800F058
:1021200059FE10BD10B50721ED4800F053FE10BD5B
:1021300010B50721EB4800F04DFE10BD10B507218A
:10214000E94800F047FE10BD10B50721E74800F050
:1021500041FE10BD10B50721E54800F03BFE10BD63
:1021600010B50721E34800F035FE10BD10B507217A
:10217000E14800F02FFE10BD10B50721DF4800F048
:1021800029FE10BD10B50721DD4800F023FE10BD6B
:1021900010B50721DB4800F01DFE10BD10B507216A
:1021A000D94800F017FE10BD10B50721D74800F040
:1021B00011FE10BD10B5D6480078D649C871682008
:1021C00048710821D34800F005FED1484078D14934
:1021D000C871692048710821CE4800F0FBFDCC4849
:1021E0008078CC49C8716A2048710821C94800F03C
:1021F000F1FDC748C078C749C8716B2048710821F4
:10220000C44800F0E7FD10BD10B5044604F001001D
:1022100048B10020BF49C871532048710821BD480A
:1022200000F0D8FD08E00120BA49C8715320487178
:102230000821B84800F0CEFD04F0020048B10020AB
:10224000B449C871522048710821B24800F0C2FD5B
:1022500008E00120AF49C871522048710821AD48FB
:1022600000F0B8FD04F0040048B10020A949C8718D
:10227000512048710821A74800F0ACFD08E001207A
:10228000A449C871512048710821A24800F0A2FD5C
:1022900004F0080048B100209E49C87150204871E0
:1022A00008219C4800F096FD08E001209949C8717A
:1022B000502048710821974800F08CFD10BD10B5E2
:1022C000044604F0010048B100209249C871592029
:1022D000487108218F4800F07DFD08E001208D49FC
:1022E000C8715920487108218A4800F073FD04F034
:1022F000020048B100208749C87158204871082160
:10230000844800F067FD08E001208249C871582028
:10231000487108217F4800F05DFD04F0040048B1D9
:1023200000207C49C871572048710821794800F085
:1023300051FD08E001207749C871572048710821F4
:10234000744800F047FD04F0080048B100207149CE
:10235000C8715620487108216E4800F03BFD08E026
:1023600001206C49C871562048710821694800F065
:1023700031FD10BD10B5044604BB00206549C8718D
:10238000592048710821634800F024FD012061496B
:10239000C8715820487108215E4800F01BFD572085
:1023A0005C49487108215B4800F014FD56205949EA
:1023B00048710821574800F00DFD84E0012C20D120
:1023C00000205449C871592048710821514800F033
:1023D00001FD58204F49487108214E4800F0FAFC91
:1023E00001204C49C871572048710821494800F024
:1023F000F1FC5620474948710821464800F0EAFCA4
:1024000061E0022C20D100204249C8715920487156
:102410000821404800F0DEFC58203E494871082160
:102420003C4800F0D7FC57203A4948710821394808
:1024300000F0D0FC01203749C871562048710821AE
:10244000344800F0C7FC3EE0032C1ED10020314987
:10245000C8715920487108212E4800F0BBFC582053
:102460002C49487108212B4800F0B4FC5720294919
:1024700048710821274800F0ADFC562025494871D5
:102480000821244800F0A6FC1DE001202149C87164
:102490005920487108211F4800F09CFC58201D4914
:1024A000487108211B4800F095FC572019494871D4
:1024B0000821184800F08EFC562016494871082162
:1024C000144800F087FC10BD7A6700088067000898
:1024D0009267000899670008C8670008CF6700087E
:1024E000D6670008DD670008E4670008EB670008AE
:1024F000F2670008F967000800680008076800082C
:102500000E680008156800081C68000823680008A9
:10251000240000204E01002010B504469748C471E5
:102520000120964948710821944800F053FC10BDE1
:1025300010B504469148C471212090494871082182
:102540008E4800F047FC10BD70B504460D468B4820
:10255000C5718B48005D894948710821874800F0A2
:1025600039FC70BD70B504460D468448C571854878
:10257000005D824948710821804800F02BFC6420EE
:10258000FEF7ECFB70BD10B504467C48C47100201A
:102590007A4948710821794800F01CFC10BD704749
:1025A00010B504467548C471092074494871082162
:1025B000724800F00FFC10BD704710B572480078EB
:1025C0006E49C8716620487108216C4800F002FC11
:1025D00010BD10B56D4800786849C8716720487112
:1025E0000821664800F0F6FB10BD10B56848007879
:1025F0006249C871132048710821604800F0EAFB65
:1026000010BD10B504465D48C47130205B49487167
:1026100008215A4800F0DEFB10BD10B504465748AB
:10262000C4713120554948710821544800F0D2FB4B
:1026300010BD10B50721574800F0CCFB10BD10B5F8
:102640000721554800F0C6FB10BD10B507215348BF
:1026500000F0C0FB10BD10B50721514800F0BAFBD7
:1026600010BD10B507214F4800F0B4FB10BD10B5E8
:1026700007214D4800F0AEFB10BD10B507214B48B7
:1026800000F0A8FB10BD10B50621494800F0A2FBE0
:1026900010BD10B5474848490A68C0F806208A8826
:1026A0004281897901730D2100F094FB10BD10B5B2
:1026B0000721424800F08EFB10BD10B507214048AD
:1026C00000F088FB10BD10B507213E4800F082FBEA
:1026D00010BD10B504462948C4711220274948711D
:1026E0000821264800F076FB10BD10B504462348AB
:1026F000C4714120214948710821204800F06AFB3B
:1027000010BD10B504461D48C47103201B49487113
:1027100008211A4800F05EFB10BD10B504461748AA
:10272000C4710420154948710821144800F052FB77
:1027300010BD10B504461148C47105200F494871F9
:1027400008210E4800F046FB10BD10B507211E48B9
:1027500000F040FB10BD10B504460848C4710220CB
:10276000064948710821054800F034FB10BD10B53A
:102770000621164800F02EFB10BD00004E0100207F
:10278000866700088A6700080100002053000020C7
:10279000080000202A680008386800083F68000820
:1027A0004D68000846680008546800083168000851
:1027B000A0670008410100206D010020A667000805
:1027C000AD670008B4670008BB670008C26700086F
:1027D0007FB505460C460121022001F0A0FAADF8B4
:1027E0000850ADF804400020ADF80A00ADF806002E
:1027F00001A9944802F0F2FB01221146914802F02F
:1028000064FF1D208DF8000000208DF801000320DA
:102810008DF8020001208DF80300684600F0EDFEFF
:102820000121884802F036FF7FBD70B5012185483F
:1028300003F0F9F900287DD0834801780078401E24
:10284000814A107009B9FEF7F2FD8048006878B13E
:102850007E480068401C7D49086008460068B0F565
:102860007A7F05D101207A490870002077490860F5
:10287000784801780078401C764A1070142902DDEF
:102880000020114608707448008800280BDD72484B
:1028900001880088401C704A1080B1F57A7F02DD03
:1028A0000020114608806D4801780078401C6B4A72
:1028B0001070C82905DD0120694908700020114603
:1028C00008706848006888B1664801680068401C64
:1028D000644A1060C82909D9002011460860FDF734
:1028E0007BFD0220FEF776FC5F4908705F480078A8
:1028F000012805D15E480068401C5D49086002E07F
:1029000000205B4908605B48006870B15948016865
:102910000068401C574A106042F6E060814204D9CA
:10292000002055490870114608605448006890B16D
:10293000524800E085E001680068401C4F4A106082
:1029400048F6A040814206D9FEF7F1FC00204B4931
:1029500008604B4908704B48006858B14948016805
:102960000068401C474A10604748814202D9002055
:102970001146086000245DE004EB440000EB0420F5
:10298000424901EB800090F8081404EB440000EB8E
:1029900004203E4A02EB800090F80804401C04EB3F
:1029A000440202EB0422394B03EB820282F8080452
:1029B00002293DDD04EB440000EB0420194601EB45
:1029C0008000B0F80004002832DD002004EB440150
:1029D00001EB04211A4602EB810104EB440202EBF5
:1029E000042203EB8202B2F80024885404EB44036F
:1029F00003EB0423254D05EB8303B3F8001404EB2C
:102A0000440303EB042305EB830004EB440303EBD3
:102A1000042305EB8303D3F804249047002004EB40
:102A2000440101EB04212A4602EB8101A1F80004D4
:102A3000601CC4B2032C9FDB0121024803F004F99F
:102A400000BF70BD00040040330100206001002081
:102A50006401002059010020480000205801002096
:102A600074010020040000202B0100200000002041
:102A7000180100201C010020290000202001002056
:102A80003101002024010020C0D401005C0C002092
:102A90000146088870472DE9F04105460E46174665
:102AA000002407E036F81410284602F04CF8AD1C5C
:102AB000601C84B2BC42F5DBBDE8F08130B5034652
:102AC0000C461546002207E01846FFF7E1FF24F800
:102AD00012009B1C501C82B2AA42F5DB30BD2DE9CE
:102AE000F05F80468A461746B8F1006F02D3384837
:102AF000804501D3BDE8F09F01F0DDFEA8F1006B39
:102B00004FEA9B25CBF34809C9F50074A74200DCC6
:102B10003C464EE04FF0006101EB85208A142D49C0
:102B2000FFF7CCFF00260BE009EB0600294931F83E
:102B300010004FF6FF71884200D003E0701C86B28F
:102B4000A642F1DB00BFA6421BDA4FF0006101EBA9
:102B5000852001F0F5FE002608E03AF8160006EBA5
:102B600009011C4A22F81100701C86B2A642F4DB4F
:102B70004FF0006101EB85208A141649FFF78BFFA7
:102B800004E0224651464046FFF785FFA74200D1A8
:102B900010E06D1C4FF000090AEB440A08EB4408F2
:102BA000381B87B2B7F5007F02DD4FF4007400E0F8
:102BB0003C46AFE700BF01F08AFE00BF9AE713B5BD
:102BC0000446012201A92046FFF789FF1CBD000031
:102BD000000002085C08002000B587B0012144F223
:102BE000040001F08FF84FF40070ADF818001820C1
:102BF0008DF81B0003208DF81A0006A9C64800F0C6
:102C0000C5FD4FF48060ADF8180004208DF81B005E
:102C100006A9C14800F0BAFD4FF4165002900020FA
:102C2000ADF80C00ADF80E00ADF81000ADF81400D2
:102C30000C20ADF8120002A9B84801F00AF90121F0
:102C4000B64801F092F9012240F22551B34801F053
:102C500098F925208DF8040000208DF80500042047
:102C60008DF8060001208DF8070001A800F0C5FCD2
:102C700007B000BD10B540F22551A84801F066FA32
:102C8000E0B140F22551A54801F08AFAA34801F0CD
:102C9000DDF9C1B2A248B0F80044B0F80004401C0D
:102CA0009F4AA2F80004E01704EB90508012A4EBB6
:102CB000802011540020114681F8080410BD70B521
:102CC00005460E4600240CE0295D944801F0BAF94F
:102CD00000BF9248008800F080000028F9D0601CF6
:102CE000C4B2B442F0DB70BD00B587B0012104204E
:102CF00001F008F80121480401F011F80420ADF8B2
:102D0000180018208DF81B0003208DF81A0006A962
:102D1000814800F03BFD0820ADF8180004208DF834
:102D20001B0006A97C4800F031FD4FF4E130029011
:102D30000020ADF80C00ADF80E00ADF81000ADF8B5
:102D400014000C20ADF8120002A9764801F081F8B9
:102D50000121744801F009F9012240F2255171481E
:102D600001F00FF926208DF8040001208DF80500F0
:102D700003208DF8060001208DF8070001A800F05F
:102D80003CFC07B000BD10B540F22551654801F08C
:102D9000DDF9F0B140F22551624801F001FA6148D5
:102DA00001F054F9C1B25E48B0F80C48B0F80C0814
:102DB000401C82B25A48A0F80C28E01704EB90504F
:102DC0008012A4EB8022584881540021544880F896
:102DD000141810BD70B505460E4600240CE0295DA0
:102DE000504801F02FF900BF4E48008800F08000E5
:102DF0000028F9D0601CC4B2B442F0DB70BD00B54D
:102E000087B00121082000F07DFF0121880400F037
:102E100086FF4FF48060ADF8180018208DF81B0075
:102E200003208DF81A0006A9404800F0AFFC4FF4CB
:102E30000060ADF8180004208DF81B0006A93B487F
:102E400000F0A4FC4FF4165002900020ADF80C00E6
:102E5000ADF80E00ADF81000ADF814000C20ADF880
:102E6000120002A9324800F0F4FF0121304801F0BD
:102E70007CF8012240F225512D4801F082F82720EC
:102E80008DF8040001208DF8050004208DF806005F
:102E900001208DF8070001A800F0AFFB07B000BDCE
:102EA00010B540F22551224801F050F9F0B140F23E
:102EB00025511F4801F074F91D4801F0C7F8C1B24F
:102EC0001748B0F8184CB0F8180C401C82B21448DF
:102ED000A0F8182CE01704EB90508012A4EB80228D
:102EE0001448815400210E4880F8201C10BD70B594
:102EF00005460E4600240CE0295D0D4801F0A2F8BD
:102F000000BF0B48008800F080000028F9D0601C4A
:102F1000C4B2B442F0DB70BD00080140003801408B
:102F20005C0C00200044004068100020000C0140B0
:102F300000480040741400200146CA1701EB927249
:102F40009210A1EB820292B9642091FBF0F200FB97
:102F5000121050B94FF4C87091FBF0F200FB121040
:102F600008B9012070470020FCE70120FAE70020A3
:102F7000F8E770B504460E461421F84802F0BEFE8C
:102F800032462146F54802F074FE20785A286ED168
:102F90006078A528FBD1E078812817D120792028F6
:102FA00014D1EF48D4F80610016061898180217B3B
:102FB0008171007900F00F00E9490979091101EBED
:102FC000810100EB4100E749087070BD607950282D
:102FD00074D02ADC182872D014DC102868D008DCE1
:102FE00002284CD0032851D0042855D0052867D199
:102FF00058E012287BD0132873D0152872D01728D8
:10300000F5D1CBE021286ED008DC19286CD01A2825
:103010006BD01B286AD02028E9D1DAE0222875D0AD
:10302000232874D04028E2D14DE1662870D012DC0C
:1030300057286ED008DC51286CD052286BD053280A
:103040006AD05628D3D1C8E158287CD059287BD0E3
:103050006528CCD105E26B2877D009DC672875D0CC
:10306000682874D0692873D06A28C0D13BE288E20E
:1030700090286ED091286DD09228B8D170E20120AE
:10308000B9490860207AB949087079E2207AB849CC
:10309000B84A1278885473E2217AB748B54A127850
:1030A00081546DE2217AB548B24A1278815467E2C0
:1030B000B348007828B9FFF7D4FA10E00FE170E0C8
:1030C0005DE2AF480078012802D1FFF7C4FA06E0BC
:1030D0000020AB490870FFF7C4FAFDF77DF94FE215
:1030E00005E038E044E08EE05CE05CE05CE0A548B0
:1030F000007890B10020A3490870A3490870A34943
:103100000870A3490870A34908701BE0A7E0C0E05D
:10311000B9E173E1F8E00CE14AE19D48007818B9A3
:1031200001209B49087002E0002099490870FEF7D1
:10313000FEF8FEF770F9002097490870944800786F
:10314000FFF7C7FA1CE26AE17AE1DCE1A2E1AAE159
:10315000B9E1E8E1E8E101208E490870207A012810
:1031600002D18E49087002E000208C49087007E205
:10317000207A804908707E497E4A1278885CFFF781
:10318000C0FA7D497B4A1278885CFFF7C6FA7B4912
:10319000784A1278885CFFF7CCFAF1E1FDF71CF968
:1031A000EEE100BF00BF00BF7648007880B100208C
:1031B000744908707449087074490870744908703B
:1031C00074490870FEF7A2FF71480078FFF781FA92
:1031D000D6E163484078401C614948700846407811
:1031E00000F00F000A3818B908464078801D487072
:1031F0005B484078122802DD0120594948700120BF
:1032000067490870BCE156488078401C5449887072
:10321000097801F5FA60FFF78FFE18B1292061499E
:10322000487002E028205F4948704D48807800F0DF
:103230000F000A3820B94A488078801D48498870B4
:10324000474881784078401E564A105C814202DD32
:1032500001204349887001205149087090E140489D
:103260000079401C3E4908710846007900F00F00C3
:103270000A3818B908460079801D08713848007965
:10328000232802DD002036490871012044490870D6
:1032900076E133484079401C31494871084640790D
:1032A00000F00F000A3818B908464079801D4871AF
:1032B0002B484079592802DD002029494871012016
:1032C000374908705CE1E079032805D1207AE828C5
:1032D00002D1FFF7CCF901E0FEF718FF50E1012021
:1032E0002C4908703048007800F0F7002E4908702B
:1032F000207A20B90846007840F0080008702A4873
:1033000000782A4908703BE10120224908702648CC
:10331000007800F0FB0024490870207A20B90846A4
:10332000007840F0040008701F4800781F490870BA
:1033300026E10120174908701B48007800F0FD00C5
:1033400019490870207A20B90846007840F0020038
:103350000870154800781549087011E180180020A0
:103360006D0100204F00002004000020120000200A
:10337000150000206C0100201D0000201900002015
:10338000530000204B000020590000204C0000207A
:1033900029000020230000204D0000200A0000200A
:1033A0007501002076010020320100203601002046
:1033B0000120754908707548007800F0FE007349D7
:1033C0000870207A20B90846007840F001000870A3
:1033D0006E4800786E490870D2E001206A49087092
:1033E0006C48007800F0F7006A490870207A20B92C
:1033F0000846007840F008000870C1E001206249EA
:1034000008706448007800F0FB0062490870207A78
:1034100020B90846007840F004000870B0E00120B0
:10342000594908705B48007800F0FD005949087060
:10343000207A20B90846007840F0020008709FE02A
:103440000120514908705348007800F0FE005149AE
:103450000870207A20B90846007840F00100087012
:103460008EE0207A4C49087008460078012804D183
:10347000FDF75DFFFDF7CFFF04E04748007808B98E
:10348000FEF72BF87CE0012044490860207A44498B
:10349000087075E0012041490860207A41490870B0
:1034A000FEF71BF86CE001203C490860207A3E4999
:1034B00008700120FDF78EFE0546042D02D1002084
:1034C000394908705CE0012034490860207A3649A7
:1034D00048700120FDF77EFE0546042D02D1002034
:1034E000314948704CE001202C490860207A2E496F
:1034F00088700120FDF76EFE0546042D02D10020E4
:10350000294988703CE0012024490860207A264936
:10351000C8700120FDF75EFE0546042D02D1002093
:103520002149C8702CE000BF0020174908701D48D1
:10353000007810B9FFF795F811E01A4800780128D3
:1035400006D1FFF788F8FDF7B8FFFDF7C6FF06E0E4
:10355000002014490870FFF784F8FCF73DFF0FE0E6
:1035600000201249087008460078FFF7B2F80020E2
:103570000849087004490870FDF7AFFF00E000BF7C
:1035800000BF00BF21E50000230000203201002021
:10359000360100200B0000208201002004000020E2
:1035A00001000020530000202400002029000020FA
:1035B0000948804709480047FEE7FEE7FEE7FEE7C7
:1035C000FEE7FEE7FEE7FEE7FEE7FEE70448054903
:1035D000054A064B70470000B30E0008ED000008D6
:1035E000F8180020F81E0020F81A0020F81A002011
:1035F00031490143314A1160704770B50021002301
:103600000F22C47804B32D4C246804F4E064C4F59C
:10361000E064210AC1F10403CA40447804FA03F1CA
:103620008478144021430901254C0678A15504787B
:1036300004F01F050124AC4005786D11AD0005F1C3
:10364000E025C5F8004109E0047804F01F050124D5
:10365000AC401C4D0678761145F8264070BD1A4ADC
:103660000A400243154B1B1F1A60704739B1134AB9
:10367000121D12680243114B1B1D1A6006E00F4A0F
:10368000121D126882430D4B1B1D1A6070470428DF
:1036900008D14FF0E021096941F004014FF0E02228
:1036A000116107E04FF0E021096921F004014FF0BA
:1036B000E0221161704700000000FA050CED00E007
:1036C00000E400E080E100E080FFFF1F10B5044649
:1036D000CC48844208D10121042000F02DFB0021B8
:1036E000042000F029FB46E0C748844208D10121AC
:1036F000082000F021FB0021082000F01DFB3AE02B
:10370000C248844208D10121102000F015FB00219D
:10371000102000F011FB2EE0BD48844208D10121A9
:10372000202000F009FB0021202000F005FB22E012
:10373000B848844208D10121402000F0FDFA002160
:10374000402000F0F9FA16E0B348844208D1012184
:10375000802000F0F1FA0021802000F0EDFA0AE06C
:10376000AE48844207D10121801500F0E5FA00211E
:10377000A01500F0E1FA10BD10B50121084600F0D7
:10378000DBFA0021012000F0D7FA10BD2DE9F0414D
:10379000024600250026002000230024002791F87F
:1037A00003C00CF00F0591F803C00CF0100CBCF135
:1037B000000F03D091F802C04CEA050591F800C053
:1037C000BCF1000F31D0146800202BE04FF0010C49
:1037D0000CFA00F3B1F800C00CEA03069E4220D1B7
:1037E00083004FF00F0C0CFA03F7BC4305FA03FCFF
:1037F0004CEA040491F803C0BCF1280F06D14FF045
:10380000010C0CFA00FCC2F814C00AE091F803C0E5
:10381000BCF1480F05D14FF0010C0CFA00FCC2F8C6
:1038200010C0401C0828D1D31460B1F800C0BCF10E
:10383000FF0F34DD546800202EE000F1080C4FF03B
:10384000010808FA0CF3B1F800C00CEA03069E4226
:1038500021D183004FF00F0C0CFA03F7BC4305FA9B
:1038600003FC4CEA040491F803C0BCF1280F05D115
:1038700000F1080C08FA0CF8C2F8148091F803C0A3
:10388000BCF1480F07D100F1080C4FF0010808FA0D
:103890000CF8C2F81080401C0828CED35460BDE854
:1038A000F0814FF6FF710180022181700421C17007
:1038B00070470246002093680B400BB1012000E0E6
:1038C000002070470146886880B270470246002099
:1038D000D3680B400BB1012000E000207047014687
:1038E000C86880B2704701617047416170470AB192
:1038F000016100E041617047C16070474FF4803260
:103900000A438261816182618269826970470246ED
:103910000020434B18684FF68073184040EA0210AD
:1039200008433F4B186070473E49C8617047F0B587
:103930000A46002300240021002500F00046B6F1CD
:10394000004F02D1364EF16901E0354E7168C0F387
:10395000034583B200F44016B6F5401F08D121F0AC
:1039600070612F4E766826F070662D4F7E6012E0F3
:1039700000F48016B6F5801F06D1032606FA05F47A
:10398000A14341F0706106E0460D360103FA06F6E8
:10399000B14341F0706122B1460D360103FA06F6DB
:1039A000314300F00046B6F1004F02D11C4EF161E8
:1039B00001E01B4E7160F0BD30B500228B071C0F7B
:1039C0000F2303FA04F2164B08338C1053F82430FB
:1039D0009343134C08348D1044F8253023468C1043
:1039E00053F824308C07240F00FA04F423430C4CC2
:1039F00008348D1044F8253030BD0A49DC310860A8
:103A00007047000000080140000C01400010014018
:103A10000014014000180140001C0140002001403A
:103A20000000014000002042DF48006840F0010033
:103A3000DD49086008464068DC490840DA494860CA
:103A400008460068DA490840D74908600846006817
:103A500020F4802008600846406820F4FE0048609A
:103A60004FF41F0088607047CF49096821F4803106
:103A7000CD4A11601146096821F480211160B0F52A
:103A8000803F03D0B0F5802F0ED106E0C64909680B
:103A900041F48031C44A116007E0C349096841F428
:103AA000A021C14A116000E000BF00BF704710B5FF
:103AB00001460022002300204A11012A02D1BA4CFB
:103AC000236806E0022A02D1B74C236A01E0B64C13
:103AD000636A01F01F02012494401C400CB10120D4
:103AE00000E0002010BD38B5002000900024002523
:103AF00000BF3120FFF7DBFF05460098401C009017
:103B00000098B0F5A06F01D0002DF2D03120FFF762
:103B1000CEFF08B1012400E00024204638BD014654
:103B20000020A14A106820F0F80040EAC1001060AF
:103B30007047A04908607047024600209A4B5868B9
:103B400020F47C1042EA01031843974B58607047F9
:103B500098490866704701460020934A506820F053
:103B600003000843506070478F48406800F00C0025
:103B70007047014600208C4A506820F0F00008434E
:103B80005060704701460020874A506820F4E0608A
:103B900008435060704701460020834A506820F473
:103BA000605040EAC1005060704729B17E4A527AA5
:103BB00002437D4B5A7204E07B4A527A82437A4B2D
:103BC0005A7270477B49D83108607047014600201F
:103BD000754A506820F44040084350607047002107
:103BE000714A20321170704A82F82010012802D0E8
:103BF00004280AD104E001216B4A2032117005E04B
:103C00000521694A2032117000E000BF00BF7047F3
:103C10006949086070476449096A0143624A116250
:103C20007047654944390860704730B5002100226B
:103C3000002400235C4D6D6805F00C0121B10429BE
:103C400005D0082923D105E05C4D056022E05B4DDD
:103C500005601FE0544D6D6805F47012524D6D689B
:103C600005F48034022505EB92421CB9544D5543AE
:103C700005600BE04C4D6D6805F400351DB1504DED
:103C80005543056002E04D4D5543056002E04B4D44
:103C9000056000BF00BF444D6D6805F0F0010909E3
:103CA000484D6B5C0568DD4045603F4D6D6805F42F
:103CB000E061090A434D6B5C4568DD4085603A4D23
:103CC0006D6805F46051C90A3E4D6B5C4568DD4086
:103CD000C560354D6D6805F44041890B3A4D6B5C0C
:103CE000C568B5FBF3F5056130BD29B12E4A5269AF
:103CF00002432D4B5A6104E02B4A526982432A4BFE
:103D00005A61704729B1284A92690243264B9A6149
:103D100004E0254A92698243234B9A61704729B196
:103D2000214AD2690243204BDA6104E01E4AD2697B
:103D300082431D4BDA61704729B11B4AD2680243A6
:103D4000194BDA6004E0184AD2688243164BDA60F5
:103D5000704729B1144A12690243134B1A6104E0F7
:103D6000114A12698243104B1A6170471249403957
:103D7000086070470F49C86470470B49C8717047A5
:103D80000948406A40F08070074948627047014620
:103D90000020054A92680A400AB1012000E0002094
:103DA0007047014988727047001002400000FFF818
:103DB000FFFFF6FE000042428004424200127A00F9
:103DC00000093D00830100209301002010B5044646
:103DD000FB48844209D101218803FFF7ADFF002190
:103DE0004FF48040FFF7A8FF32E0F648844209D143
:103DF00001214804FFF7ADFF00214FF40030FFF729
:103E0000A8FF25E0F048844209D101218804FFF78A
:103E1000A0FF00214FF48020FFF79BFF18E0EB4844
:103E2000844209D10121C804FFF793FF00214FF418
:103E30000020FFF78EFF0BE0E548844208D1012106
:103E40000805FFF786FF00214FF48010FFF781FF80
:103E500010BD2DE9F04786B005460E460024A24667
:103E600000BFA1460027B08900B100BF2F462C8AB1
:103E70004CF6FF700440F08804432C82AC894EF667
:103E8000F3100440B0883189084371890843044322
:103E9000AC81AC8A4FF6FF400440B0890443AC8249
:103EA00001A8FFF7C2FEC648874202D1DDF810A084
:103EB00001E0DDF80CA0A88900F4004040B10AEB55
:103EC000CA0000EB0A1031684900B0FBF1F807E0C6
:103ED0000AEBCA0000EB0A1031688900B0FBF1F868
:103EE0006420B8FBF0F004012009642101FB108973
:103EF000A88900F4004040B1322000EBC900B0FBBB
:103F0000F1F000F00700044308E0322000EB091054
:103F10006421B0FBF1F000F00F0004432C8106B0E7
:103F2000BDE8F0874FF41651016000218180C18007
:103F300001810C21418100218181704710B5024629
:103F40000020108A4FF2FF0318400B884C8823434F
:103F50008C882343CC8823431843108210BD002152
:103F6000018041808180C180704721B1828942F403
:103F70000052828104E082894DF6FF731A408281EB
:103F80007047F0B50346002400260025002040F6C7
:103F90006A17B94200D100BF1846C1F3421401F0BC
:103FA0001F06012707FA06F5012C01D10C3004E0A9
:103FB000022C01D1103000E014301AB107682F43F1
:103FC000076002E00768AF430760F0BD1AB1838A5B
:103FD0000B43838202E0838A8B4383827047028A89
:103FE0004FF6F0731A400282028A0A430282704737
:103FF00082894FF2FF731A40828182890A4382814B
:10400000704721B1828942F00202828104E08289F4
:104010004FF6FD731A4082817047028A4FF6DF73B4
:104020001A400282028A0A430282704721B1028A40
:1040300042F48042028204E0028A4BF6FF731A4087
:1040400002827047C1F30802828070470146888867
:10405000C0F308007047818941F0010181817047F8
:10406000028BD2B20283028B42EA012202837047A2
:10407000028B02F47F420283028B0A430283704761
:1040800021B1828A42F02002828204E0828A4FF6C5
:10409000DF731A408282704721B1828A42F0100297
:1040A000828204E0828A4FF6EF731A408282704760
:1040B00021B1828A42F00802828204E0828A4FF6AD
:1040C000F7731A408282704721B1828942F400421C
:1040D000828103E08289C2F30E028281704721B19E
:1040E000828A42F40062828204E0828A4FF2FF7385
:1040F0001A4082827047828A4FF6FB731A4082828E
:10410000828A0A438282704721B1828A42F0020287
:10411000828204E0828A4FF6FD731A4082827047E1
:1041200002460020B1F5007F00D100BF13880B408C
:104130000BB1012000E00020704701F40072B2F5DD
:10414000007F00D100BFCA430280704770B50246AD
:10415000002400230025002040F66A16B14200D159
:1041600000BFC1F3421501F01F03012606FA03F355
:10417000012D02D19689334006E0022D02D1168A24
:10418000334001E0968A33400C12012606FA04F40B
:104190001688344013B10CB1012000E0002070BD3E
:1041A00010B50022002340F66A14A14200D100BFDE
:1041B0000A1201249440A3B2DC43048010BD000025
:1041C000003801400044004000480040004C0040DE
:1041D0000050004010B50446FA48844208D101213D
:1041E0004015FFF7A9FD00216015FFF7A5FD17E0B9
:1041F000F548844208D101210015FFF79DFD0021FB
:104200002015FFF799FD0BE0F048844208D1012109
:10421000C803FFF791FD00214FF40040FFF78CFD2C
:1042200010BD30B50246002000235068E84C204005
:104230000D790C6844EA0524204350609068E54CF1
:104240002040D1E902542C434D7944EA45042043EF
:104250009060D06A20F470000C7C641EE4B22343AA
:1042600040EA0350D06230BD00210160017141710C
:104270008160C16001210174704721B1826842F000
:104280000102826003E0826822F0010282607047CE
:1042900021B1826842F48072826003E0826822F475
:1042A00080728260704710B50023CBB21AB14468A7
:1042B0001C43446002E044689C43446010BD816834
:1042C00041F0080181607047014600208A6802F0D1
:1042D00008020AB1012000E000207047816841F027
:1042E000040181607047014600208A6802F00402E0
:1042F0000AB1012000E00020704721B1826842F439
:10430000A002826003E0826822F4A002826070470B
:10431000014600208A6802F480020AB1012000E010
:104320000020704710B50A4600210023416821F49F
:104330006041531E41EA4331416010BD21B14268E2
:1043400042F40062426003E0426822F4006242608C
:104350007047F0B504460D4600200021092D11DDFF
:10436000E068A5F10A0606EB4607072606FA07F1FC
:104370008843A5F10A0606EB460603FA06F1084350
:10438000E0600CE0206905EB4507072606FA07F117
:10439000884305EB450603FA06F108432061072A26
:1043A0000FDA606B561E06EB86071F2606FA07F12A
:1043B0008843561E06EB860605FA06F1084360633D
:1043C00022E00D2A0FDA206BD61F06EB86071F2688
:1043D00006FA07F18843D61F06EB860605FA06F1B2
:1043E0000843206310E0E06AA2F10D0606EB8607A1
:1043F0001F2606FA07F18843A2F10D0606EB860692
:1044000005FA06F10843E062F0BD21B1826842F48A
:104410008012826003E0826822F48012826070471A
:104420000146C86C80B2704766484C3000687047DF
:1044300021B1426842F48062426003E0426822F4A3
:1044400080624260704721B1426842F4805242600B
:1044500003E0426822F48052426070470A4600211D
:10446000816821F4E04111438160704721B1826885
:1044700042F40042826003E0826822F400428260DB
:10448000704721B1826842F40212826003E08268C0
:1044900022F4021282607047014600208A6802F40A
:1044A00000120AB1012000E000207047F0B5044678
:1044B0001546002000220026092911DDE068A1F13F
:1044C0000A0707EB470C072707FA0CF29043A1F104
:1044D0000A0707EB470703FA07F21043E0600CE016
:1044E000206901EB410C072707FA0CF2904301EB1E
:1044F000410703FA07F210432061A06BC0F3015695
:10450000EF1C06F1010CA7EB0C0707EB870C1F272C
:1045100007FA0CF29043EF1C06F1010CA7EB0C0715
:1045200007EB870701FA07F21043A063F0BD10B54F
:104530000A4600210023816B21F44011531E41EAF9
:104540000351816310BD08B5002300930090009BC8
:104550000B440093009B1A6008BD08B5024600207A
:104560000090009201F12800009B184400900098F0
:10457000006880B208BD0A4600214168164B194008
:104580001143416070474162826270470A460021D0
:10459000416821F01F0111434160704740B1094952
:1045A0000831096841F40001064A0832116007E049
:1045B00004490831096821F40001024A08321160F7
:1045C000704700000024014000280140003C0140E9
:1045D000FFFEF0FFFDF7F1FFFFFD3FFF0246002069
:1045E00013680B400BB1012000E000207047CA4364
:1045F0000260704770B502460020002300240B12B1
:104600005568CEB205EA060415681D4015B10CB117
:10461000012000E0002070BD00220A12D343036095
:104620007047000001684FF6FE72114001600021E2
:10463000016041608160C1608D49884208D18C4928
:104640000839496841F00F01894A083A51608AE007
:1046500087491431884208D185490839496841F0B1
:10466000F001834A083A51607DE08149283188424F
:1046700008D17F490839496841F470617C4A083A99
:10468000516070E07A493C31884208D17849083954
:10469000496841F47041764A083A516063E07449D0
:1046A0005031884208D172490839496841F4702173
:1046B0006F4A083A516056E06D496431884208D12A
:1046C0006B490839496841F47001694A083A5160F8
:1046D00049E067497831884208D165490839496815
:1046E00041F07061624A083A51603CE06149884299
:1046F00006D1011F096841F00F01021F116032E06D
:104700005C491431884208D15A49091F096841F0AF
:10471000F001584A121F116025E05649283188429D
:1047200008D15449091F096841F47061514A121FA8
:10473000116018E04F493C31884208D14D49091FAA
:10474000096841F470414B4A121F11600BE049495E
:104750005031884207D14749091F096841F4702147
:10476000444A121F1160704710B50022026847F6D4
:10477000F0739A430C6A8B6823430C6923434C699A
:1047800023438C692343CC6923434C6A23438C6ABB
:1047900023431A430260CB6843600B6883604B6815
:1047A000C36010BD0021016041608160C160016192
:1047B00041618161C161016241628162704721B1E1
:1047C000026842F00102026004E002684FF6FE73E4
:1047D0001A40026070471AB103680B43036002E09D
:1047E00003688B4303607047416070470146486827
:1047F00080B2704701460020002201F080531BB1B7
:104800001C4B083B1A6802E0194B083B1A6802EA85
:1048100001030BB1012000E00020704700F080513F
:1048200019B11449091F086002E0114908394860AC
:10483000704701460020002201F080531BB10D4B50
:10484000083B1A6802E00A4B083B1A6802EA0103B7
:104850000BB1012000E00020704700F0805119B139
:104860000449091F086002E001490839486070479F
:10487000080002400804024001460020FE4A106879
:1048800000F03800084310607047FB49096821F0C8
:104890000801F94A11601146096801431160704727
:1048A000F549096821F01001F34A116011460968C1
:1048B000014311607047F148EF494860F048486093
:1048C0007047EE48EC494860ED4848607047EA4858
:1048D000006940F08000E84908617047E6480069D7
:1048E00040F08000E449086170470420E249C9684B
:1048F00001F0010109B101200EE0DF49C96801F0B2
:10490000040109B1022007E0DB49C96801F0100188
:1049100009B1032000E00420704700B502460423DB
:10492000FFF7E3FF034603E0FFF7DFFF0346521EF6
:10493000012B01D1002AF7D102B90523184600BD89
:1049400030B5044604254FF43020FFF7E6FF054656
:10495000042D17D1C848006940F00200C64908611B
:1049600008464461006940F0400008614FF430207F
:10497000FFF7D3FF0546C048006941F6FD710840C6
:10498000BD490861284630BD10B504244FF43020DD
:10499000FFF7C3FF0446042C16D1B748006940F066
:1049A0000400B54908610846006940F0400008610C
:1049B0004FF43020FFF7B1FF0446AF48006941F6DD
:1049C000FB710840AC490861204610BD00B50246A5
:1049D0000423FFF78AFF034603E0FFF786FF034641
:1049E000521E012B01D1002AF7D102B90523184626
:1049F00000BD10B504244FF43020FFF7E7FF044654
:104A0000042C16D19C48006940F004009A490861C2
:104A10000846006940F0400008614FF43020FFF77D
:104A2000D5FF04469448006941F6FB71084092495D
:104A30000861204610BD00208F49C96901F00201BC
:104A400009B1012000E00020704730B5A5250424FD
:104A5000FFF7F1FF00B100254FF43020FFF75DFFB5
:104A60000446042C3AD1854883498860844888608C
:104A70000846006940F0200008610846006940F0DF
:104A8000400008614FF43020FFF747FF0446042C34
:104A90001BD17948006941F6DF7108407649086109
:104AA0000846006940F01000086176480580E00281
:104AB000FFF733FF0446052C10D06F48006941F61C
:104AC000EF7108406C49086108E0052C06D06A487F
:104AD000006941F6EF71084067490861204630BD22
:104AE00078B506460C46042500200090E802FFF742
:104AF00014FF0546042D24D15F48006940F00100F1
:104B00005D4908613480E802FFF707FF0546042D80
:104B100010D1B01C0090200C00990880E802FFF72B
:104B2000FCFE05465448006941F6FE7108405249B2
:104B3000086106E05048006941F6FE7108404E49A0
:104B40000861284678BD70B504460D460426F0027B
:104B5000FFF7E3FE0646042E11D14748006940F0F6
:104B60000100454908612580F002FFF7D6FE0646A0
:104B70004148006941F6FE7108403F4908613046EE
:104B800070BD70B505460E460424E002FFF7C5FE71
:104B90000446042C17D13948374988603848886062
:104BA0000846006940F0100008612E80E002FFF71F
:104BB000B4FE0446052C06D02F48006941F6EF717B
:104BC00008402D490861204670BD2DE9F043044698
:104BD0004FF6FF763746B046B1460425E443E6B2C9
:104BE000C4F30727C4F307484FEA1469E802FFF744
:104BF00094FE0546042D49D120481F49886020486D
:104C000088600846006940F010000861FF2E06D059
:104C10001C4808300680E802FFF77FFE0546042D99
:104C200008D1FF2F06D017480A300780E802FFF7A7
:104C300074FE0546042D0AD1B8F1FF0F07D01148C4
:104C40000C30A0F80080E802FFF767FE0546042D4F
:104C50000AD1B9F1FF0F07D00A480E30A0F8009032
:104C6000E802FFF75AFE0546052D0FD002480069FD
:104C700041F6EF71084007E000200240230167453C
:104C8000AB89EFCD00F8FF1F664908612846BDE8F3
:104C9000F08330B5054604244FF43020FFF73DFE85
:104CA0000446042C41D160485E4988605F488860B2
:104CB0000846006940F0200008610846006940F09D
:104CC000400008614FF43020FFF727FE0446042C13
:104CD00022D15448006941F6DF710840514908610A
:104CE0000846006940F0100008611DB100205049DD
:104CF000088002E0A5204E4908804FF43020FFF7DD
:104D00000CFE0446052C10D04648006941F6EF71B0
:104D100008404449086108E0052C06D04148006974
:104D200041F6DF7108403F490861204630BDF0B5CB
:104D300005460E46174604243B483A4988603B48DE
:104D40008860E002FFF7E9FD0446042C19D13548DC
:104D5000006940F010003349086147F0F800304323
:104D600028433349891C0880E002FFF7D6FD04463A
:104D7000052C06D02B48006941F6EF7108402949FF
:104D800008612046F0BD2748C06980087047254863
:104D9000006A704700202349096801F0200109B129
:104DA000012000E00020704729B11E4A1269024329
:104DB0001C4B1A6104E01B4A12698243194B1A61A9
:104DC000704701460020012908D1164AD26902F035
:104DD00001020AB1012008E0002006E0114AD26871
:104DE0000A400AB1012000E0002070470D49C86068
:104DF000704704200B49C96801F0010109B1012085
:104E00000EE00849C96801F0040109B1022007E079
:104E10000449C96801F0100109B1032000E0042031
:104E2000704700000020024023016745AB89EFCDA9
:104E300000F8FF1F10B50446FE48844208D1012146
:104E4000C014FEF779FF0021E014FEF775FFC4E0FF
:104E5000B4F1804F08D101210846FEF77AFF002106
:104E60000120FEF776FFB8E0F348844208D1012123
:104E70000220FEF76EFF00210220FEF76AFFACE081
:104E8000EE48844208D101210420FEF762FF002190
:104E90000420FEF75EFFA0E0E948844208D101212A
:104EA0000820FEF756FF00210820FEF752FF94E08D
:104EB000E448844208D101211020FEF74AFF002176
:104EC0001020FEF746FF88E0DF48844208D1012128
:104ED0002020FEF73EFF00212020FEF73AFF7CE075
:104EE000DA48844208D101214014FEF725FF002151
:104EF0006014FEF721FF70E0D548844209D10121FA
:104F0000C804FEF719FF00214FF40020FEF714FF3C
:104F100063E0D048844209D101210805FEF70CFF67
:104F200000214FF48010FEF707FF56E0CA48844284
:104F300009D101214805FEF7FFFE00214FF40010C2
:104F4000FEF7FAFE49E0C548844208D1012140201D
:104F5000FEF7FFFE00214020FEF7FBFE3DE0C048CB
:104F6000844208D101218020FEF7F3FE0021802039
:104F7000FEF7EFFE31E0BB48844208D101218015E5
:104F8000FEF7E7FE0021A015FEF7E3FE25E0B64898
:104F9000844209D101210804FEF7CEFE00214FF41E
:104FA0008030FEF7C9FE18E0B048844209D10121E3
:104FB0004804FEF7C1FE00214FF40030FEF7BCFEAE
:104FC0000BE0AB48844208D101218804FEF7B4FE0F
:104FD00000214FF48020FEF7AFFE10BD00220288B2
:104FE000944B98420ED0994B98420BD0B0F1804F21
:104FF00008D0914B984205D0904B984202D0904BEC
:10500000984204D14FF68F731A404B881A438D4B48
:10501000984207D08C4B984204D04FF6FF431A4079
:10502000CB881A4302808B8883850B880385814B4C
:1050300098420BD0854B984208D08B4B984205D0B4
:105040008A4B984202D08A4B984201D10B7A038650
:1050500001238382704770B5002400220023058C51
:105060004FF6FE7635400584028C8388048B4FF61C
:105070008F752C40B51E2C400D882C43751E2A4080
:105080000D892A434D882A436A4DA8420BD06F4DA3
:10509000A84208D0744DA84205D0744DA84202D051
:1050A000734DA84213D14FF6F7752A404D892A4314
:1050B0004FF6FB752A408D882A434FF6FF652B403B
:1050C0004FF6FF552B408D892B43CD892B43838091
:1050D0000483CD888586028470BD70B500240022CB
:1050E0000023058C4FF6EF7635400584028C8388CB
:1050F000048B48F6FF752C404FF6FF452C400D8879
:105100004FF6FF7606EA05252C434FF6DF752A4059
:105110000D8906EA05152A434D8806EA05152A4336
:10512000444DA84202D0494DA8421DD14FF67F758B
:105130002A404D894FF6FF7606EA05152A434FF6B9
:10514000BF752A408D8806EA05152A434FF6FF35BC
:105150002B404FF2FF752B408D8906EA85052B43C6
:10516000CD8906EA85052B4383800483CD88058796
:10517000028470BD70B5002400220023058C4FF618
:10518000FF6635400584028C8388848B4FF68F75CB
:105190002C404FF6FC752C400D882C434FF6FF55E4
:1051A0002A400D894FF6FF7606EA05252A434D88E9
:1051B00006EA05252A431F4DA84202D0234DA842E6
:1051C0001DD14FF2FF752A404D894FF6FF7606EA52
:1051D00005252A434FF6FF352A408D8806EA052526
:1051E0002A434EF6FF752B404DF6FF752B408D89F7
:1051F00006EA05152B43CD8906EA05152B43838066
:105200008483CD888587028470BD70B50022002319
:105210000024058C4EF6FF7635400584038C848887
:10522000828B48F6FF752A404FF6FF452A400D88CD
:1052300020E00000002C0140000400400008004075
:10524000000C0040001000400014004000340140F9
:10525000004C014000500140005401400018004043
:10526000001C00400020004000400140004401407C
:10527000004801404FF6FF7606EA05252A434DF621
:10528000FF752B400D8906EA05352B434D8806EA4C
:1052900005352B43FA4DA84202D0FA4DA84208D159
:1052A0004BF6FF752C408D894FF6FF7606EA851583
:1052B0002C4384808283CD88A0F84050038470BD45
:1052C000828B4FF2FF331A408283828B4FF6FF733B
:1052D00003EA01231A4382837047F0B50C46154652
:1052E000002200210026078C4EF6FF7C07EA0C07FF
:1052F0000784828B018C4FF6FF7707EA043640F66D
:10530000FF473A404FF6FF7707EA05273A434FF643
:10531000FF7707EA03373A43D94FB8420ED0D94F47
:10532000B8420BD0B0F1804F08D0D74FB84205D06B
:10533000D64FB84202D0D64FB84206D14DF6FF77CD
:10534000394046F48057394305E047F6FF57394066
:1053500044F48057394382830184F0BD828B4FF639
:10536000F3731A408283828B0A4382837047F0B5BD
:105370000C461546002200210026078C4FF6FF6CD4
:1053800007EA0C070784828B018C4FF6FF7707EA48
:1053900004264FF60C773A404FF6FF7707EA0317DB
:1053A0002F433A43B64FB8420ED0B64FB8420BD057
:1053B000B0F1804F08D0B44FB84205D0B34FB842D7
:1053C00002D0B34FB84206D14FF6FF57394046F4EA
:1053D0008077394305E04FF2FF57394044F4807736
:1053E000394382830184F0BD028B4FF2FF331A40B0
:1053F0000283028B4FF6FF7303EA01231A430283F1
:105400007047F0B50C461546002200210026078C97
:105410004FF6EF7C07EA0C070784028B018C4FF6EE
:10542000FF7707EA041640F6FF473A404FF6FF774A
:1054300007EA03373A434FF6FF7707EA05273A436F
:105440008F4FB8420ED08F4FB8420BD0B0F1804F83
:1054500008D08D4FB84205D08C4FB84202D08C4F47
:10546000B84206D14FF6DF77394046F0100739438E
:1054700005E04FF65F77394044F010073943028367
:105480000184F0BD028B4FF6F3731A400283028B46
:105490000A4302837047F0B50C46154600220021EE
:1054A000068C4FF6FE773E400684028B018C4FF649
:1054B0000C7632407E1C06EA03162E433243704EB1
:1054C000B0420ED06F4EB0420BD0B0F1804F08D03A
:1054D0006D4EB04205D06D4EB04202D06C4EB0421F
:1054E00006D14FF6FD76314044F00106314305E028
:1054F0004FF6F576314044F00106314302830184D2
:10550000F0BD70B505460C465D4885420ED05D483D
:1055100085420BD0B5F1804F08D05B48854205D05D
:105520005A48854202D05A48854200D100E000BF67
:10553000208850B92389A28861882846FFF7ABFFED
:10554000E1882846FFF79EFF25E0208804280AD13D
:105550002389A28861882846FFF753FFE1882846FF
:10556000FFF742FF17E0208808280AD12389A28884
:1055700061882846FFF7FBFEE1882846FFF7EEFE2C
:1055800009E02389A28861882846FFF7A6FEE18802
:105590002846FFF795FE70BD2DE9F04105460C4603
:1055A00000260127608808B9022600E00026A088AE
:1055B000012801D1022700E001272088A0B9238912
:1055C000A28861882846FFF766FFE1882846FFF732
:1055D00059FF23893A4631462846FFF712FFE188F2
:1055E0002846FFF701FF13E02389A2886188284637
:1055F000FFF707FFE1882846FFF7F6FE23893A46C2
:1056000031462846FFF747FFE1882846FFF73AFF73
:10561000BDE8F0810A884B881A438B881A43CB88EF
:105620001A430B891A434B891A438B891A43A0F8F2
:10563000442070474FF6FF71818000210180C180B6
:105640004180017270470021018041808180C180CA
:10565000018141818181C1817047002101804180A8
:10566000012181800021C1800181704700210180DA
:1056700041808180C180018141818181704700002A
:10568000002C0140003401400004004000080040AC
:10569000000C004021B1028842F00102028004E0C7
:1056A00002884FF6FE731A400280704731B1B0F89D
:1056B000442042F40042A0F8442005E0B0F8442021
:1056C000C2F30E02A0F8442070471AB183890B433D
:1056D000838102E083898B43838170478182704795
:1056E00041EA0203A0F8483070471AB183890B439E
:1056F000838102E083898B438381704701894FF660
:10570000F8721140018170470A46002101894FF665
:105710008F73194011430181704730B504460D461F
:1057200029462046FFF7F0FF208940F0070020813E
:1057300030BD2DE9F04104460D4616461F46602D4A
:1057400006D13B46012231462046FFF75AFE05E0CE
:105750003B46012231462046FFF79DFE2946204662
:10576000FFF7D2FF208940F007002081BDE8F081DB
:1057700030B50C4600210189C9B24FF6FF7505EA24
:105780000325154325432943018130BD2DE9F0410F
:1057900005460E4617469846002443463A4631468B
:1057A0002846FFF7E5FF2C894FF6F870044044F0D7
:1057B00007044FF68F70044044F070042C81BDE85C
:1057C000F081F0B504460D4616461F463B4632466C
:1057D00029462046FFF7CCFF208940F480402081F5
:1057E000F0BD0185828270470A46002101884FF68C
:1057F0008F731940114301807047F0B50C46154670
:105800001E460021002200230189028B038C4FF6E3
:10581000F877394021434FF6FC473A4040F20117F0
:105820003A434FF6DD773B404FF6FF7707EA06171E
:105830002F433B43018102830384F0BD0A460021CC
:10584000018B4FF68F7319401143018370470A464D
:105850000021018B48F6FF7319404FF6FF7303EAEE
:1058600002231943018370470A460021818B4FF6BA
:105870008F7319401143818370470A460021818B41
:1058800048F6FF7319404FF6FF7303EA02231943EA
:105890008183704721B1028842F08002028004E0D7
:1058A00002884FF67F731A400280704721B18288C8
:1058B00042F00402828004E082884FF6FB731A40B3
:1058C0008280704721B1828842F00802828004E021
:1058D00082884FF6F7731A408280704721B1828820
:1058E00042F00102828004E082884FF6FE731A4083
:1058F000828070470A460021018B4FF6F7731940EA
:105900001143018370470A460021018B4FF2FF7358
:1059100019404FF6FF7303EA0223194301837047CE
:105920000A460021818B4FF6F7731940114381839A
:1059300070470A460021818B4FF2FF7319404FF6E2
:10594000FF7303EA02231943818370470A4600214B
:10595000018B4FF6FB7319401143018370470A46D0
:105960000021018B4FF6FF3319404FF6FF7303EA16
:1059700002231943018370470A460021818B4FF6A9
:10598000FB7319401143818370470A460021818BC4
:105990004FF6FF3319404FF6FF7303EA0223194312
:1059A000818370470A460021018B4FF67F731940AF
:1059B0001143018370470A460021018BC1F30E0198
:1059C0004FF6FF7303EA02231943018370470A4627
:1059D0000021818B4FF67F731940114381837047FB
:1059E0000A460021818BC1F30E014FF6FF7303EAD3
:1059F00002231943818370470A460021018C4FF628
:105A0000FD7319401143018470470A460021018C3F
:105A10004FF6F77319401143018470470A4600217D
:105A2000018C4FF6DF7319404FF6FF7303EA021340
:105A30001943018470470A460021018C4FF67F7399
:105A400019404FF6FF7303EA0213194301847047AC
:105A50000A460021018C4FF6FF5319404FF6FF73A1
:105A600003EA02231943018470470A460021018C8E
:105A70004FF2FF7319404FF6FF7303EA02231943F5
:105A8000018470470A460021018C4DF6FF731940CE
:105A90004FF6FF7303EA023319430184704730B5B0
:105AA000002301248C40A3B2048C9C430484048C06
:105AB00002FA01F5ADB22C43048430BD30B50023A9
:105AC00004248C40A3B2048C9C430484048C02FA0A
:105AD00001F5ADB22C43048430BD70B503460020FF
